:020000040800F2
:10000000881B0020690200080D210008271F000836
:10001000E31F0008B3060008793E00080000000056
:100020000000000000000000000000008B34000809
:100030006D1B0008000000000D220008513500086B
:10004000830200088302000883020008830200087C
:10005000830200088302000883020008830200086C
:100060008302000883020008411C00088302000884
:10007000830200088302000883020008830200084C
:10008000830200088302000883020008830200083C
:10009000B90600088302000883020008B11C0008AA
:1000A000830200088302000883020008830200081C
:1000B000E1380008093900088302000883020008BB
:1000C0008302000883020008830200081930000838
:1000D000F13000088302000883020008AD3C0008EC
:1000E000D11B00088302000883020008D9350008EC
:1000F00083020008830200080000000000000000E6
:1001000000000000000000000D3900084D3100081B
:1001100000000000000000008302000883020008C5
:100120006119000885190008A91900088302000850
:1001300083020008D52A0008B52B0008F52C00081A
:100140008302000800000000000000000000000022
:10015000000000000000000000000000000000009F
:100160000000000000000000830200088302000875
:100170008302000800000000E136000800000000D3
:10018000000000008302000800F002F800F05CF8B4
:100190000AA090E8000C82448344AAF10107DA45E2
:1001A00001D100F051F8AFF2090EBAE80F0013F0D8
:1001B000010F18BFFB1A43F001031847B44F0000AA
:1001C000D44F00000A444FF0000C10F8013B13F02C
:1001D000070408BF10F8014B1D1108BF10F8015BA0
:1001E000641E05D010F8016B641E01F8016BF9D193
:1001F00013F0080F1EBF10F8014BAD1C0C1B09D1EA
:100200006D1E58BF01F801CBFAD505E014F8016B5B
:1002100001F8016B6D1EF9D59142D6D370470000ED
:100220000023002400250026103A28BF78C1FBD8FF
:10023000520728BF30C148BF0B6070471FB504F09C
:100240003AFE1FBD10B510BD00F031F81146FFF7A2
:10025000F5FF03F0CBFE00F04FF803B4FFF7F2FF19
:1002600003BC00F053F800000948804709480047E4
:10027000FEE7FEE7FEE7FEE7FEE7FEE7FEE7FEE756
:10028000FEE7FEE704480549054A064B70470000B3
:10029000593500088901000888150020881B0020B6
:1002A00088170020881700207047704770477546F0
:1002B00000F028F8AE4605006946534620F00700D6
:1002C000854618B020B5FFF7DDFFBDE820404FF0B0
:1002D00000064FF000074FF000084FF0000B21F030
:1002E0000701AC46ACE8C009ACE8C009ACE8C009FD
:1002F000ACE8C0098D4670470446AFF30080204645
:10030000FFF7ABFF00487047241500200149182073
:10031000ABBEFEE7260002007047000000B591B0BA
:10032000002001F0ADFF0121084601F0B7FF0121D7
:10033000480401F0B3FF0121480201F0DFFFFF2074
:100340000B9003208DF8300000208DF833000BA9AE
:100350004FF0904001F063FD03200B900BA968481B
:1003600001F05DFD07200B900BA9664801F057FDD9
:10037000654801F037FB6548009065480190002012
:1003800002900D20ADF80C00002004908020059014
:1003900040000690800007902020089000020990FD
:1003A00000200A906946584801F0C2FB01215648D6
:1003B00001F00CFB55484C3800F0C2F80DA800F0D5
:1003C00070F901208DF834008DF835004FF460206D
:1003D0000E9000200F900D208DF840000DA94B4885
:1003E0004C3800F0CDF805230122002147484C3855
:1003F00000F0ECF805230222012144484C3800F0BB
:10040000E5F805230322022140484C3800F0DEF8CD
:100410000523042203213D484C3800F0D7F805237A
:100420001A46042139484C3800F0D0F8052306223A
:10043000194636484C3800F0C9F805230722062132
:1004400032484C3800F0C2F80523082207212F4813
:100450004C3800F0BBF80523092208212B484C3802
:1004600000F0B4F805230A22092128484C3800F08E
:10047000ADF805230B220A2124484C3800F0A6F8D9
:1004800005230C220B2121484C3800F09FF805234E
:100490000D220C211D484C3800F098F805230E223F
:1004A0000D211A484C3800F091F8012117484C38BA
:1004B00000F03BF8012115484C3800F02BF81348A8
:1004C0004C3800F0DFF800BF10484C3800F04EF810
:1004D0000028F9D10D484C3800F0DEF800BF0B4879
:1004E0004C3800F039F80028F9D108484C3800F0B1
:1004F000CEF8012105484C3800F00CF811B000BDD1
:100500000004004800080048080002404C24014054
:100510002413002021B1826842F00102826003E0CE
:10052000826822F001028260704721B1826842F441
:100530008072826003E0826822F480728260704779
:1005400010B504460121480201F0E8FE00214FF4F5
:10055000007001F0E3FE10BD014600208A6802F041
:1005600004020AB1012000E000207047014600208B
:100570008A6802F008020AB1012000E000207047FA
:1005800030B5024600200023506820F480700C78BB
:1005900040EA0420506090680B4C2040D1E901549F
:1005A0002C434D7844EA4504204340F40004946011
:1005B000D06A20F470000C7B641EE4B2234340EA4E
:1005C0000350D06230BD0000FDF7F1FFF0B50446E6
:1005D0000D4600200021092D11DDE068A5F10A0675
:1005E00006EB4607072606FA07F18843A5F10A0637
:1005F00006EB460603FA06F10843E0600CE02069CA
:1006000005EB4507072606FA07F1884305EB450683
:1006100003FA06F108432061072A0FDA606B561EC1
:1006200006EB86071F2606FA07F18843561E06EBDF
:10063000860605FA06F10843606322E00D2A0FDA08
:10064000206BD61F06EB86071F2606FA07F18843A4
:10065000D61F06EB860605FA06F10843206310E074
:10066000E06AA2F10D0606EB86071F2606FA07F1DF
:100670008843A2F10D0606EB860605FA06F108434B
:10068000E062F0BD816841F00801816070478168D7
:1006900041F4A00181607047816841F004018160EC
:1006A0007047002101704170416081600121017338
:1006B000704700BFFEE7000010B50520084908801C
:1006C000084800F015F808480068052803D1012003
:1006D0000649087002E000200449087010BD0000BF
:1006E000080100204A000020580300204900002093
:1006F00070B5054600214E4800F0B9FA08B900204F
:1007000070BD4C4A00214A4800F0C0FA49480068D0
:1007100040F2FE7188427DD1002405E045480B304F
:10072000005D45490855641C4248807AA042F5D8CE
:1007300041488078414908703F48C07848703E4839
:10074000007988703C484079C8703B4840780A2856
:1007500028D1084690ED000A37480078384901EB67
:10076000800080ED000A344881780078354A02F82C
:1007700020103148C1780078012202EB8000314A14
:1007800011542D4801790078022202EB80002D4A95
:100790001154294841790078032202EB8000294A4C
:1007A00011542DE0244840780B2829D1234890ED9E
:1007B000000A21480078244901EB800080ED000AFE
:1007C0001D4881780078382202EB80001D4A1154C0
:1007D0001948C1780078392202EB8000194A115477
:1007E0001548017900783A2202EB8000154A11542D
:1007F0001148417900783B2202EB8000114A1154E4
:1008000038221049114802F0B9FD01201049087042
:100810000BE0FFE7002404E006480B30005D28559C
:10082000641C0448807AA042F6D80248807A67E7C0
:10083000006400405803002044020020BC00002057
:10084000000E0020060D0020380E002000000308D6
:10085000540200202DE9F04385B006468846002466
:100860002A480660A1462A48864202D140F2F57025
:10087000064600250CE005EB8500264951F82000CE
:10088000B04202D10120814604E0681CC0B2054696
:10089000152DF0DB00BFB9F1010F34D105EB850058
:1008A0001C4951F82000009000208DF808008DF8B8
:1008B000090008208DF80A00002406E018F804104A
:1008C0000DF10B000155601C84B2082CF6DB694663
:1008D000114800F063FA0746002401E0601C84B26E
:1008E00039460D4800F0EEFA18B940F6FF70844220
:1008F000F4DB40F6FF70844203DB012005B0BDE865
:10090000F0830020FAE700BFF8E700003C02002077
:10091000000007F5BC4F00080064004000B58BB034
:100920000121080501F0BAFC07220021394801F035
:10093000BEFA07220121374801F0B9FA03200990D5
:1009400002208DF8280003208DF8290000208DF862
:100950002A0001208DF82B0009A92E4801F05FFA2A
:1009600014208DF8200001208DF8210000208DF842
:10097000220001208DF8230008A801F0C9FB012105
:10098000480601F09BFC244800F048F805A800F058
:10099000F5F900208DF81A0001208DF81B000020C9
:1009A0008DF81C008DF81D008DF81E008DF81F00BD
:1009B0008DF816008DF8170003208DF8180001201F
:1009C0008DF819000820ADF8140005A9124800F0B0
:1009D000C4F800208DF80E008DF80F0001208DF86E
:1009E00010000020ADF80400ADF80600ADF80800D6
:1009F000ADF80A00ADF80C0001208DF8110001A837
:100A000000F01EF801220221034800F09DF80BB00F
:100A100000BD0000000C00480064004010B5044612
:100A20000648844208D10121480601F057FC002104
:100A30004FF0007001F052FC10BD00000064004057
:100A400010B50021837A012202FA03F13D4A1268AF
:100A500042F001023B4B1A603A4A1C3212688A4348
:100A6000384B1C331A60027BCAB9364A0C32126802
:100A70008A43344B0C331A604288C38842EA0343EA
:100A8000304A4032847A42F834300288838842EA1D
:100A900003432C4A4032847A02EBC4025360027B47
:100AA000012A19D1274A0C3212680A43254B0C330C
:100AB0001A604288038842EA0343224A4032847A19
:100AC00042F83430C288838842EA03431D4A4032E8
:100AD000847A02EBC4025360C27A3AB9194A121DF1
:100AE00012688A43174B1B1D1A6006E0154A121D37
:100AF00012680A43134B1B1D1A60028932B9114A4E
:100B0000143212688A430F4B14331A600289012A87
:100B100006D10C4A143212680A430A4B14331A6085
:100B2000427B012A06D1074A1C3212680A43054B50
:100B30001C331A60034A126822F00102014B1A604A
:100B400010BD0000006600401AB143690B434361C9
:100B500002E043698B434361704730B50246002091
:100B60000023146824F002041460146844F00104A3
:100B7000146000E05B1C546804F001041CB94FF6DB
:100B8000FF74A342F6D1546804F001040CB90020AC
:100B90006CE08C79012C04D1146844F0800414605A
:100BA00003E0146824F080041460CC79012C04D193
:100BB000146844F04004146003E0146824F0400416
:100BC00014600C7A012C04D1146844F020041460E1
:100BD00003E0146824F0200414604C7A012C04D142
:100BE000146844F01004146003E0146824F0100446
:100BF00014608C7A012C04D1146844F00804146049
:100C000003E0146824F008041460CC7A012C04D1A9
:100C1000146844F00404146003E0146824F004042D
:100C200014608C78A407CD7844EA05640D7944EA11
:100C300005444D7944EA05540D886D1E2C43D4615A
:100C4000146824F001041460002300E05B1C546865
:100C500004F001041CB14FF6FF74A342F6D15468AE
:100C600004F001040CB1002000E0012030BD024678
:100C7000002019B9D36803F0030006E0012903D16D
:100C8000136903F0030000E00020704710B500F581
:100C9000D87303EB01131B6803F004031372137A78
:100CA00053B900F5D87303EB01131B6840F2FF74CE
:100CB00004EA5353136009E000F5D87303EB011302
:100CC0001B686FF0604404EAD303536000F5D873E7
:100CD00003EB01131B6803F00203537200F5D87392
:100CE00003EB01135B6803F00F03937200F5D873F5
:100CF00003EB01135B681B0AD37400F5D87303EB95
:100D000001139B68D37200F5D87303EB01139B6842
:100D10001C0A147300F5D87303EB01139B681C0CB9
:100D2000547300F5D87303EB01139B681B0E937388
:100D300000F5D87303EB0113DB68D37300F5D873A8
:100D400003EB0113DB681C0A147400F5D87303EB82
:100D50000113DB681C0C547400F5D87303EB01130A
:100D6000DB681B0E937421B9C36843F02003C36092
:100D700003E0036943F02003036110BD002181718A
:100D8000C171017241728172C1728170C17003219F
:100D900001710221417101210180704710B50246A5
:100DA0000020936803F08063B3F1806F00D110E0FE
:100DB000936803F00063B3F1006F01D1012008E0F4
:100DC000936803F08053B3F1805F01D1022000E00B
:100DD0000420042874D002F5C07303EB00131B68D1
:100DE00003F0010402F5C07303EB00131C600B7ADF
:100DF0007BB94B7A0C8843EA445302F5C07404EB88
:100E000000142468234302F5C07404EB001423602B
:100E100010E00B7A4C6843EAC4034C7A234302F592
:100E2000C07404EB00142468234302F5C07404EB7F
:100E3000001423608B7A03F00F038B7202F5C073EA
:100E400003EB00135B6823F00F0402F5C07303EBA0
:100E500000135C6002F5C07303EB00135B688C7ACF
:100E6000234302F5C07404EB001463608B7B1C0603
:100E70004B7B44EA03440B7B44EA0323CC7A2343B1
:100E800002F5C07404EB0014A3608B7C1C064B7C41
:100E900044EA03440B7C44EA0323CC7B234302F55E
:100EA000C07404EB0014E36002F5C07303EB00139D
:100EB0001B6843F0010402F5C07303EB00131C60D0
:100EC00010BD000010B50246002321B1012907D052
:100ED00002290FD109E090681D4C00EA04030BE0E1
:100EE00090681C4C00EA040306E090681A4C00EA83
:100EF000040301E0002300BF00BF184C181BA342ED
:100F000016D007DC83B16FF08060184470B10228FE
:100F100018D111E0B0F5007F10D0114C204448B139
:100F2000B0F5003F0ED10BE002230DE000230BE0F3
:100F3000002309E0002307E0012305E0012303E08B
:100F4000012301E0002300BF00BFD8B210BD0000A4
:100F50000300000400030008000003100001000863
:100F60000001FFF710B500240F49086800F0D2F91E
:100F7000052801D1322415E000200C498884084658
:100F800080780006C97840EA01400849097940EABA
:100F9000012006494979084340080449C8610120F5
:100FA00081F82600204610BD2402002008140020ED
:100FB0002DE9F0472248D0F800800668014608680D
:100FC00000F0A8F904464FF00009032C03D100F00B
:100FD00093FE814630E0012C01D0022C2AD1194821
:100FE000807800061749C97840EA01401549097917
:100FF00040EA01201349497940EA0107002512E03F
:10100000012C05D10021084602F060FF814604E072
:101010000021084602F032FF8146761C002130464E
:1010200001F05EF86D1CBD42EAD90021404601F096
:1010300057F801E04FF032094846BDE8F08700005C
:101040002402002008140020EF2004490870BE206C
:101050004870AD208870DE20C87070472C020020D8
:101060003020704710B51C4890F827408078000267
:101070001949498840EA112080B278B9164890F899
:10108000270040F08100144981F82700084690F8B5
:10109000270000F0EF0081F8270014E00E4890F8D8
:1010A000270000F0800070B10B4890F8270040F056
:1010B0001000094981F82700084690F8270000F041
:1010C0007F0081F82700044890F82710204600F0A0
:1010D00055FA002010BD00000814002070B500244F
:1010E000214890F82760007900021F49898840EA6A
:1010F000112085B295BB1C488078A8B91A4890F891
:10110000270040F01000184981F82700084690F8A1
:10111000270000F07F0081F82700084690F827108C
:10112000304600F02BFA1DE00F488078012816D1D8
:101130000D4890F8270000F0DF000B4981F82700E8
:10114000084690F8270000F07F0081F82700084645
:1011500090F82710304600F011FA03E001E0312446
:1011600000E03124204670BD0814002010B503486B
:101170008178032000F008FD10BD00000814002055
:1011800010B50621022000F0FFFC10BD10B524218F
:101190000548C1720021017343214173002181730D
:1011A000024800F09DFF10BD081400203E130020EF
:1011B00000210248C1600020704700000814002090
:1011C00002210348C1720121017300207047000011
:1011D0000814002038B5274880788DF800000020DA
:1011E0008DF801008DF802009DF8000004283ADA1D
:1011F0009DF801009DF800101F4A02EB01110978CB
:10120000884230DA9DF802009DF8001002EB0111CF
:101210004978884227DA9DF8000000F063FB9DF8CA
:101220000000154901EB001001781248C1729DF8C9
:10123000000000F083FB0F4908739DF8001001EBDC
:1012400081010E4A02EB81010873009800F0CCFE88
:101250000446084840689DF8001001EB8101074AE8
:1012600042F8210003E000210248C1720024204618
:1012700038BD0000081400205C4F0008B81300209F
:10128000034890F82710C1720021017300207047B5
:101290000814002000210248C1720020704700009D
:1012A0000814002010B500F019F800F005F9044901
:1012B00081F827000020C861086200F085FE10BD9B
:1012C000081400200449002003E000220A70491C91
:1012D000401C3028F9D37047F414002010B5FFF7F4
:1012E000F1FFFFF7B1FE002007490870022007490F
:1012F0000870002405E00648015D04480E300155E1
:10130000641C042CF7DB10BD300200203E130020CB
:101310002C0200200146B1F1005F04D3134A914230
:1013200001D8012020E0B1F1006F04D3104A9142AE
:1013300001D8032018E0B1F57E0F04D30D4A914285
:1013400001D8042010E0002905D340F6FF72914235
:1013500001D2002008E0B1F5801F04D3064A914273
:1013600001D2022000E0052070470000004000206C
:1013700000000108FF03FE00FF01100070B500240B
:1013800012490868FFF7C6FF054610494868FFF78D
:10139000C1FF0646052D01D0052E01D1322412E0F1
:1013A0000B48807800060A49C97840EA014008499C
:1013B000097940EA0120064949790843044908624D
:1013C000012081F82600204670BD00002402002084
:1013D0000814002010B503488178032000F018FF9E
:1013E00010BD00000814002010B50621022000F0F6
:1013F0000FFF10BD014608787047000070B500254A
:1014000000244EE0294800EB0410007B012847D15E
:1014100005EB4500264951F8200004EB8401254ADC
:1014200042F8210005EB4500214901EB800080884E
:1014300004EB840102EB8101888005EB45001C4927
:1014400001EB8000807904EB840102EB810188725A
:1014500005EB4500164901EB8000C07904EB8401DF
:1014600002EB8101087305EB4500114901EB800097
:10147000007A04EB840102EB8101487305EB45001F
:101480000B4901EB8000407A04EB840102EB8101FF
:10149000C873012004EB840102EB8101C8806D1C3C
:1014A000641C042CAEDB02F0B5FC70BD5C4F000880
:1014B000F4140020B81300200148007870470000A1
:1014C00030020020002000217047000008B50848C5
:1014D00080788DF800000648C0788DF80100044837
:1014E00000798DF80200009800F07EFD08BD000034
:1014F0000814002010B5034A9178506800F0F0FD00
:1015000010BD00000814002010B51B4890F82740BB
:1015100090F8270000F0B800174981F82700084626
:1015200090F82700897801F047010843124981F8B3
:10153000270004F00400042809D0084690F827008A
:1015400000F00400042802D100F0FCF80CE004F0E4
:101550000400042808D1084890F8270000F004008F
:10156000042801D0FFF7AEFE034890F8271020466C
:1015700000F004F8002010BD0814002070B50646E5
:101580000D4606F0040004280DD005F004000428E0
:1015900009D1002404E00A48005D0A490855641C8A
:1015A000042CF8DB09E006F00400042805D105F05E
:1015B0000400042801D0FFF747FD0348057070BD03
:1015C0004C1300202C02002030020020F8B50E48F9
:1015D0004668002400250FE06946304601F048F8CF
:1015E0000446322C06D09DF80020E81C064908313C
:1015F0000A54761C681CC5B203488078A84201DDF5
:10160000002CE9D02046F8BD0814002070B5002653
:101610003248C478042C5EDA204601F05DF82F4889
:101620008078012803D02D488078022849D12B48A2
:1016300000792B4901EB04110978884201DB32263D
:1016400007E02648007904EB8401264A02EB810179
:1016500048736EBB2148407904EB8401214A02EBB8
:10166000810188721D48C588012D06DA012004EB2E
:10167000840102EB8101888005E004EB84001949B4
:1016800001EB8000858004EB8400164901EB8000AB
:10169000808804EB8401134A02EB8101C8800F4863
:1016A0008078012805D104EB840102EB8101C87325
:1016B0000EE0012004EB84010A4A02EB8101087468
:1016C00006E0002004EB8401064A02EB8101C873A6
:1016D00002F0A0FB00E03226304670BD0814002066
:1016E0005C4F0008B813002010B500241348807820
:1016F00098B10FE004EB8400114901EB8000007CFD
:1017000030B1012004EB84010D4A02EB8101C87362
:10171000601CC4B2042CEDDB0BE008E0002004EBFD
:101720008401074A02EB8101C873601CC4B2042C17
:10173000F4DB02F06FFB002010BD00000814002055
:10174000B813002010B50021002048E0254A02EB24
:101750000012127B012A41D100EB8002224B53F888
:10176000222001EB4103214C44F8232000EB8002AE
:101770001D4B03EB8202928801EB410304EB8303D0
:101780009A8000EB8002184B03EB8202927A01EB05
:10179000410304EB83039A7100EB8002124B03EBCD
:1017A0008202127B01EB410304EB8303DA7100EB4D
:1017B00080020D4B03EB8202527B01EB410304EBF1
:1017C00083031A7200EB8002074B03EB8202D27B89
:1017D00001EB410304EB83035A72491C401C0428AB
:1017E000B4DB10BD5C4F0008B8130020F4140020D7
:1017F00043210248C17200207047000008140020F5
:10180000F8B50F480668002503240DE06946304608
:1018100000F02EFF0546322D03D09DF80010094838
:101820000155761C601CC4B2064808388078C01C7C
:10183000A042EBDC0021304600F052FC2846F8BD07
:1018400024020020101400201CB500242148007937
:1018500000062049898801F47F4140EA01201D49A2
:10186000496801F47F0140EA11201A49496840EAB9
:10187000116019490860174880788DF804009DF8B8
:101880000400012808D09DF80400022804D09DF827
:101890000400042800D03224D4B90F480068009016
:1018A0000098FFF737FD052801D1322408E000F049
:1018B00067FC9DF80410884202DA00F0EDFB044654
:1018C00034B9DDE9000102F039FB00F0B5FB044654
:1018D00020461CBD081400201C02002002463620B1
:1018E00070470000F0B5144D05EB00152D78124E31
:1018F00006EB0016767815FB06F5EB1DDD1703EBFE
:101900005575ED100C4E06EB001636780A4F07EBB6
:1019100000177F7816FB0755ACB2074B03EB00139B
:101920005968002204E000230B80891C531C9AB2E2
:10193000A242F8DBF0BD00005C4F00080246002127
:10194000002007E0054B03EB01131B780344D8B2DA
:101950004B1CD9B29142F5DB704700005C4F000888
:1019600008B50221054801F07EFA28B1694603480E
:1019700001F082FA0249086008BD000000600140E1
:101980003C00002008B50221054801F06CFA28B19E
:101990006946034801F070FA0249086008BD00007A
:1019A000006001404000002008B50221054801F018
:1019B0005AFA28B16946034801F05EFA0249086004
:1019C00008BD0000006001404400002021B1026811
:1019D00042F00102026004E002684FF6FE731A4012
:1019E0000260704701684FF6FE72114001600021ED
:1019F000016041608160C1604B49884208D14A4919
:101A00000839496841F00F01474A083A51608AE0B5
:101A100045491431884208D143490839496841F0A1
:101A2000F001414A083A51607DE03F49283188423F
:101A300008D13D490839496841F470613A4A083A89
:101A4000516070E038493C31884208D13649083944
:101A5000496841F47041344A083A516063E03249C0
:101A60005031884208D130490839496841F4702121
:101A70002D4A083A516056E02B496431884208D11A
:101A800029490839496841F47001274A083A5160E8
:101A900049E025497831884208D123490839496805
:101AA00041F07061204A083A51603CE01F49884289
:101AB00006D1011F096841F00F01021F116032E0D9
:101AC0001A491431884208D11849091F096841F0A0
:101AD000F001164A121F116025E01449283188428E
:101AE00008D11249091F096841F470610F4A121F99
:101AF000116018E00D493C31884208D10B49091F9B
:101B0000096841F47041094A121F11600BE007494E
:101B10005031884207D10549091F096841F47021F5
:101B2000024A121F11607047080002400804024078
:101B300010B50022026847F6F0739A430C6A8B686E
:101B400023430C6923434C6923438C692343CC69A9
:101B500023434C6A23438C6A23431A4302608B89D4
:101B600043600B6883604B68C36010BD7047000022
:101B700001B504490098086000BF024800680028C9
:101B8000FBD108BD000000202DE9F04104460F46BE
:101B90000D4805684FF0000826460CE00B48815DB3
:101BA000002002F093F980466D1C0021284600F0C9
:101BB00097FA701CC6B2E019B042EFDC0348C5606A
:101BC0004046BDE8F08100002402002008140020F7
:101BD00010B54FF4806000F07BF848B34FF480609C
:101BE00000F070F810214FF0904000F083F988B9B0
:101BF00000201049087001200F4908700F48008824
:101C00004FF6FF71884213D00C480088401C0B49E6
:101C100008800DE00948008820B108480088401E6F
:101C20000649088001200349087000200249087015
:101C300010BD00006200002063000020280000208A
:101C400010B5102000F044F840B3102000F03AF82E
:101C50004FF48061124800F04DF970B9012011492C
:101C6000087000201049087010480088B0B10F4873
:101C70000088401E0D49088010E0002009490870C6
:101C8000012009490870094800884FF6FF71884211
:101C900004D006480088401C0449088010BD00009C
:101CA000000C004862000020630000202800002093
:101CB00010B5402000F00CF810B1402000F002F800
:101CC00010BD000001490860704700001404014085
:101CD000014600200022074B1B6803EA0102054B66
:101CE00014331B680B4013B10AB1012000E000203F
:101CF00070470000000401400020704730B50446E2
:101D000004254FF4302000F077F80546042D16D155
:101D10000C48006940F002000A4908610846446125
:101D2000006940F0400008614FF4302000F064F892
:101D300005460448006920F002000249086128466F
:101D400030BD00000020024004200B49C96801F0AA
:101D5000010109B101200EE00749C96801F0100135
:101D600009B1022007E00449C96801F0040109B182
:101D7000032000E00420704700200240034800696F
:101D800040F08000014908617047000000200240D7
:101D900070B504460D4604264FF4302000F02CF8B0
:101DA0000646042E11D10A48006940F00100084996
:101DB000086125804FF4302000F01EF806460448E4
:101DC000006920F0010002490861304670BD000042
:101DD000002002400548006900F0800020B104485E
:101DE00002494860034848607047000000200240F4
:101DF00023016745AB89EFCD00B502460423FFF709
:101E0000A3FF034603E0FFF79FFF0346521E012B8B
:101E100001D1002AF7D102B90523184600BDF0B55B
:101E20000A4600210023002400BF3DE0012505FAF9
:101E300001F3156805EA03049C4234D11579012D9C
:101E400002D01579022D16D185684F000326BE40B9
:101E5000B543856055794E00B54086683543856049
:101E6000868801258D40AE438680868895798D4091
:101E7000ADB22E43868005684F000326BE40B543B1
:101E8000056015794E00B540066835430560C568A4
:101E90004F000326BE40B543C560D5794E00B5401E
:101EA000C6683543C560491C1029BFD3F0BDF0B5E5
:101EB000002300244D07ED0E02FA05F3CE1000F1C9
:101EC000200555F826504E07F70E0F26BE40B543A5
:101ED000CF1000F1200646F82750CE1000F1200563
:101EE00055F8265045EA0304CE1000F1200545F8C8
:101EF0002640F0BD02460020138A0B400BB10120A2
:101F000000E00020704702460020938A0B400BB18E
:101F1000012000E000207047816170470AB18161B3
:101F200000E00185704700BFFEE700001CB50121FD
:101F3000084600F0E3F901214FF4D40000F0AEF9B7
:101F40004FF40070009001208DF8040000208DF8FF
:101F5000060003208DF8050002208DF80700694671
:101F60000D48FFF75CFF4FF48860009069460B480E
:101F7000FFF755FF00208DF804008DF806000320C0
:101F80008DF8050002208DF807003C20009069467E
:101F90000348FFF744FF1CBD001400480008004838
:101FA0000010004810B500EB8003064C04EB8302E0
:101FB000002103E000231370521C491C1429F9D39B
:101FC00010BD0000B813002010B5002404E0204626
:101FD000FFF7E8FF601CC4B2042CF8DBFFF70EFA31
:101FE00010BD00BFFEE7000001B500209DF8001005
:101FF00004291ADA9DF801109DF800200C4B03EB20
:1020000002121278914210DA9DF802109DF8002019
:1020100003EB02125278914207DA0649BDF800201C
:102020000A809DF802208A7000E0322008BD00007E
:102030005C4F00082002002038B515480068009069
:102040009DF80000134901EB00104078401E9DF8F8
:102050000210884210D19DF800000E4901EB0010DB
:102060000078401E9DF80110884201D100240DE047
:1020700000F012F8044609E09DF80200401CC0B2CE
:102080008DF802000098FFF7AFFF0446204638BDE8
:10209000200200205C4F000838B500240E4800687C
:1020A00000909DF800000D4901EB00100078401EE3
:1020B0009DF80110884201D132240BE09DF8010007
:1020C000401CC0B28DF8010000208DF8020000987D
:1020D000FFF78AFF204638BD200200205C4F000831
:1020E00070B505460C460026022C01DB322609E0BD
:1020F0002846FFF70FF9052801D1322602E00248F1
:1021000040F82450304670BD240200207047000083
:1021100070B5002100230F22C47804B3154C246845
:1021200004F4E064C4F5E064210AC1F10403CA4088
:10213000447804FA03F184781440214309010E4CD9
:102140000678A155047804F01F050124AC400578F9
:102150006D11AD0005F1E025C5F8004109E00478F6
:1021600004F01F050124AC40044D0678761145F8B3
:10217000264070BD0CED00E000E400E080E100E0EE
:102180003EB5184800680290002400259DF809100B
:102190009DF808006B46224600F01CFA0DE09DF801
:1021A00009109DF808006B46224600F013FA9DF8CE
:1021B00004002844C5B2601CC4B29DF8040038B1C4
:1021C0009DF80800084901EB00104078A042E6D1D4
:1021D0009DF80800044901EB00104078401BC0B294
:1021E0003EBD0000200200205C4F000829B1064AD5
:1021F00012680243044B1A6004E0034A12688243E7
:10220000014B1A60704700000070004070470000EA
:102210002DE9F04105460E46174807684FF00008C3
:102220002C4622E014490868FFF774F8022806D10A
:102230001248015D002001F021FE80460EE00E49AB
:102240000868FFF767F8032806D10C48015D0020F5
:1022500001F028FE804601E04FF032087F1C00218B
:102260003846FFF73DFF601CC4B2A819A042D9DC74
:102270004046BDE8F0810000240200200814002040
:102280000549496821F44041034A516011464968B3
:1022900001435160704700000010024029B1064A16
:1022A00052690243044B5A6104E0034A5269824373
:1022B000014B5A61704700000010024029B1064AE4
:1022C000D2690243044BDA6104E0034AD2698243D3
:1022D000014BDA61704700000010024029B1064A44
:1022E00012690243044B1A6104E0034A12698243F3
:1022F000014B1A61704700000010024029B1064AE4
:1023000092690243044B9A6104E0034A9269824352
:10231000014B9A61704700000010024029B1064A43
:10232000D2680243044BDA6004E0034AD268824375
:10233000014BDA60704700000010024070B50021C8
:1023400000230024002500227A4E766806F00C0156
:1023500021B1042905D0082921D105E0764E066077
:1023600020E0754E06601DE0724E766806F470132C
:10237000704E766806F48034022606EB93431CB94F
:102380006E4E5E43066009E06A4EF66A06F00F067E
:10239000751C694EB6FBF5F65E43066002E0664EBC
:1023A000066000BF00BF634E766806F0F0010909C1
:1023B000634E725C0668D64046605E4E766806F4F0
:1023C000E061090A5E4E725C4668D6408660594EEE
:1023D000766806F46051C90A594E725C4668D64068
:1023E000C660544E766806F44041890B554E725CC7
:1023F000C668B6FBF2F606614E4E766806F0784186
:10240000C1F3C361504E725C0668B6FBF2F64661DA
:10241000484E366B06F04006402E03D048F21206B6
:10242000866102E04FF400468661424E366B06F04C
:102430001006102E02D0404EC66101E00668C6614B
:102440003C4E366B06F02006202E02D03A4E066235
:1024500001E006680662374E366B06F0030616B9D1
:10246000C668466219E0334E366B06F00306012E4D
:1024700002D10668466210E02E4E366B06F0030667
:10248000022E02D1B603466207E02A4E366B06F0F2
:102490000306032E01D1284E4662264E366B06F403
:1024A000403616B9866886621DE0224E366B06F409
:1024B0004036B6F5803F02D10668866213E01D4EB5
:1024C000366B06F44036B6F5003F03D14FF40046B4
:1024D000866208E0174E366B06F44036B6F5403F8C
:1024E00001D1154E8662134E366B06F4402616B99E
:1024F0008668C6621DE00F4E366B06F44026B6F5C0
:10250000802F02D10668C66213E00A4E366B06F4CD
:102510004026B6F5002F03D14FF40046C66208E00E
:10252000044E366B06F44026B6F5402F01D1024E1C
:10253000C66270BD0010024000127A0000093D0022
:1025400004000020140000201800002005494968FC
:1025500021F07841034A51601146496801435160B6
:1025600070470000001002401FB501210846FFF728
:10257000A5FE4FF0804001F0EDF92820019040F2D7
:102580009F50ADF800000020ADF80800ADF8020043
:1025900069464FF0804001F0CBFA0121880701F035
:1025A000C7F901220221480701F0B9FA0121880781
:1025B00001F0C4F91C208DF80C0001208DF80D00ED
:1025C00000208DF80E0001208DF80F0003A8FFF702
:1025D0009FFD1FBD2DE9F04304460D461646072218
:1025E00002FB0560DFF8808008EB0418D8F804804F
:1025F000DFF8749009EB041999F80090C9EBC90948
:1026000008EB490802464FEAE07900EB59794FEAB6
:10261000E90908EB490C4FEAE07800EB58784FEAFB
:10262000E808A0EBC8084FEA48684FEA1867BCF80A
:102630000020DFF8388038F8178002EA08013941B5
:10264000094A02EB0412526832F810201A6003297A
:1026500001DA197101E004221A711A6802F10052BC
:102660001A60BDE8F08300005C4F00089C4F000832
:1026700070B505460C4600262846FEF74BFE01289D
:1026800002D12878207025E02846FEF743FE20B9C5
:102690002846FEF7AFFE20701CE02846FEF73AFE03
:1026A000022802D12878207014E02846FEF732FE76
:1026B000032802D1287820700CE02846FEF72AFE75
:1026C000042806D1A5F57E0000F580500078207022
:1026D00000E03226304670BD70B5044604EB84003D
:1026E0000A4951F8206004EB840001EB8000057B6F
:1026F0002046FFF757FC04EB8400044941F82060B2
:1027000004EB840001EB8000057370BDB81300205A
:1027100010B588B0002401214FF0E060FFF7EEFD16
:1027200001210807FFF7CAFD01214FF46060FFF7A0
:102730005DFD4FF02840FFF709FF01214805FFF735
:10274000ADFD01210805FFF7A9FD01218804FFF770
:10275000A5FD03208DF80C0001208DF80F004FF629
:102760008070029002A9CD48FFF759FB03208DF835
:102770000C0001208DF80F004FF4FE40029002A9DA
:10278000C748FFF74CFB03208DF80C0001208DF8A3
:102790000F000420029002A9C248FFF740FB00206E
:1027A00000F0A8FB0520FFF7E3F90121BE4800F087
:1027B0004FFB0121BD4800F04BFB0121BC4800F05C
:1027C00047FB0121B94800F072FB0121B84800F035
:1027D0006EFB0121B44800F06AFB1E2400BF4FF0DD
:1027E0000041B24800F03FFB10B9601E0400F6D172
:1027F00014B9012008B010BD1E2400BF4FF00041E5
:10280000A94800F030FB10B9601E0400F6D10CB9E5
:102810000120EFE71E2400BF4FF00041A44800F064
:1028200022FB10B9601E0400F6D10CB90120E1E7CB
:102830000020049005900690079004AA00219A4871
:1028400000F0DEFA04AA0021984800F0D9FA04AAA0
:102850000021974800F0D4FA00220121924800F0AC
:10286000E5FA00229349904800F0E0FA00229249EC
:102870008D4800F0DBFA002290498B4800F0D6FA30
:1028800000228F49884800F0D1FA00228D498648FD
:1028900000F0CCFA00228C49834800F0C7FA0022ED
:1028A0008A49814800F0C2FA002201217F4800F0E5
:1028B000BDFA00227F497D4800F0B8FA00227E4927
:1028C0007A4800F0B3FA00227C49784800F0AEFA6A
:1028D00000227B49754800F0A9FA00227949734823
:1028E00000F0A4FA00227849704800F09FFA002214
:1028F00076496E4800F09AFA002201216C4800F0F7
:1029000095FA00226B496A4800F090FA00226A4961
:10291000674800F08BFA00226849654800F086FAA3
:1029200000226749624800F081FA00226549604848
:1029300000F07CFA002264495D4800F077FA5E49B5
:10294000594800F0BFFA6249584800F0BBFA6049A4
:10295000574800F0B7FA0121544800F0B6FA0121B7
:10296000534800F0B2FA01214F4800F0AEFA0021BE
:102970004E4800F09CFA00214D4800F098FA0021E2
:10298000494800F094FA0021474800F048FA002135
:10299000464800F044FA0021454800F040FA424819
:1029A00000F0A3FA414800F0A0FA414800F09DFA77
:1029B0004FF4F03400BF01213C4800F054FA10B944
:1029C000601E0400F7D10CB9022013E74FF4F03475
:1029D00000BF0121344800F046FA10B9601E04001F
:1029E000F7D10CB9022005E74FF4F03400BF012104
:1029F0002F4800F038FA10B9601E0400F7D10CB966
:102A00000220F7E63D208DF8040000208DF8050037
:102A10008DF8060001208DF8070001A8FFF778FB6C
:102A20003E208DF8040000208DF805008DF806008A
:102A300001208DF8070001A8FFF76AFB3F208DF801
:102A4000040000208DF805008DF8060001208DF8A7
:102A5000070001A8FFF75CFB01220221134800F0E8
:102A60001DFA01220221124800F018FA0122022167
:102A70000D4800F013FA0C4800F032FA0B4800F051
:102A80002FFA0B4800F02CFA0021094800F0E0F979
:102A9000054800F025FA0020ACE6000000100048D0
:102AA000000C004800040048006001400064014040
:102AB0000068014002000100040002000800030059
:102AC000100004002000050040000600000108007E
:102AD0007F010F0010B52DED068B82B00221284832
:102AE00000F0C1F9002847D001A9254800F0C4F939
:102AF00084B224490198884202D12348048038E0F6
:102B000022490198884202D11F48448031E020497F
:102B1000019888422DD11C4884800146898801F59E
:102B2000004188B201F05BFF41EC1A0B9FED190BDD
:102B300053EC102B01F066FF41EC190B9FED170BC6
:102B400053EC102B01F0C6FD41EC180B01F01AFFFD
:102B5000144908800021144800F07AF90121134833
:102B600000F076F90021064800F072F90F4800F0F5
:102B7000B7F906200E49088002B0BDEC068B10BDE7
:102B80000060014000010800800300208000070071
:102B900004000200FCA9F1D24D62004000000000D8
:102BA000E0FFEF405C00002000680140006401404D
:102BB0000801002008B502213D4800F054F9002822
:102BC00074D069463A4800F057F93A4908800098AD
:102BD000012818D1084600883749384A128821F858
:102BE0001200344800883649088034480088092893
:102BF00005D032480088401C3049088053E000204E
:102C00002E4908804FE02F490098884204D1294876
:102C100000882B49488046E02B490098884204D11F
:102C200024480088264988803DE028490098884249
:102C300004D1204800882249C88034E02449009803
:102C4000884208D11B4800881D4908812148008816
:102C50002149088027E021490098884208D1154879
:102C60000088174948811B4800881B4908801AE0E2
:102C70001B490098884216D10E4800881049888167
:102C80000C4800881749C8800A48008816490880FF
:102C90000121164800F0DCF80021054800F0D8F8C2
:102CA000124800F01DF904201149088008BD0000F9
:102CB000006401406E000020B0030020520000209C
:102CC0009403002002000100040002000800030039
:102CD00010000400700000206000002020000500AB
:102CE000400006006C0300205800002000680140EE
:102CF0000801002008B50221334800F0B4F800288C
:102D000060D06946304800F0B7F830490880009834
:102D1000012804D1084600882D49C8814FE02D497B
:102D20000098884204D1294800882949088246E051
:102D300029490098884204D12448008824494882BF
:102D40003DE026490098884204D120480088204967
:102D5000888234E022490098884208D11B480088C4
:102D60001B49C882194800881E49088027E01E496F
:102D70000098884208D115480088154908831348EF
:102D80000088184908801AE018490098884216D12E
:102D90000E4800880E4948830C4800881449C881B1
:102DA0000A480088134908800121134800F050F8B0
:102DB0000021054800F04CF80F4800F091F803207E
:102DC0000E49088008BD0000006801407000002026
:102DD0009403002002000100040002000800030028
:102DE00010000400600000202000050040000600E4
:102DF0006C0300205A0000200064014008010020FC
:102E000030B5002300F1200303EB8103D2E9004534
:102E10002C4395682C43D5682C431C6030BD0A4672
:102E2000416821F0060111434160704730B500232D
:102E3000064CA14207D00B0C046C9D0002FA05F56C
:102E40002C43046400E0426430BD0000000108002F
:102E500021B1426842F00102426003E0426822F080
:102E60000102426070470246002093680B400BB19C
:102E7000012000E00020704730B502460B460021DB
:102E8000116E054800EA11200D0E0124AC402043CC
:102E9000186008B230BD00000000FFFF1AB10368DF
:102EA0000B43036002E003688B430360704721B16A
:102EB000026842F00042026003E0026822F0004231
:102EC000026070478AB24261704721B1426842F0A5
:102ED0002002426003E0426822F020024260704714
:102EE000416841F4004141607047416841F0100180
:102EF000416070470146034A106820F4407008435F
:102F0000106070470060014000B589B00121C8041D
:102F1000FFF7C4F901210803FFF7F0F93B4800F07F
:102F200091F902208DF80C0003208DF80D0000208F
:102F30008DF80E0001208DF80F004FF460700290A4
:102F400002A93348FEF76BFF052209213048FEF73E
:102F5000AEFF052207212E48FEF7A9FF0522082112
:102F60002B48FEF7A4FF01210803FFF7D7F9002142
:102F70004FF48050FFF7D2F90020ADF810004FF465
:102F80008270ADF812004FF4E060ADF8140000203C
:102F9000ADF816000120ADF818004002ADF81A0097
:102FA0002820ADF81C000020ADF81E000720ADF869
:102FB000200004A9154800F08DF94FF48051134802
:102FC00000F0B6F901226021104800F070F92320CA
:102FD0008DF8040002208DF8050000208DF8060011
:102FE00001208DF8070001A8FFF792F8012107489A
:102FF00000F01CF9002201210548FEF78FFF012295
:1030000011460448FEF78AFF09B000BD00300140B8
:10301000000800480004004810B52448008900F06A
:103020000100002840D022480078632805D02048BD
:103030000078401C1E49087002E000201C490870FE
:10304000002000F03FF81B49194A127821F81200BD
:1030500008461749097830F81100102804D10122D8
:1030600041011548FEF75AFF1149087800EBD0716D
:103070004910A0EB410181B90E480D49097830F89B
:1030800011100E48007801EB00200C490880002246
:1030900040210B48FEF742FF06E006480449097844
:1030A00030F811000549088010BD000000300140D3
:1030B000480000200C0400200014004856000020A6
:1030C0000008004870B50546002405E0601CC4B245
:1030D000C82C01DD002070BD0448008900F001000B
:1030E0000028F3D0014800F01DF9F4E7003001405A
:1030F00010B50E48008800F00100B0B14FF4006137
:103100004FF09040FEF708FF09480078632804D08C
:1031100007480078401C06490870002000F00CF8B1
:103120000449034A127821F8120010BD0838004003
:10313000480000200C04002070B505460024024819
:1031400000F0C5F870BD00000038004010B510E078
:103150000B480078632804D009480078401C0849CF
:103160000870002000F012F80649054A127821F88C
:1031700012000121044800F091F80128E8D010BDA8
:10318000480000200C040020003C004070B50546BB
:10319000002405E0601CC4B2C82C01DD002070BD15
:1031A0000121044800F07AF80028F3D0014800F02B
:1031B000B9F8F4E7003C004070B50446002500BFB4
:1031C0000221194800F06AF80028F9D02646E017D5
:1031D00004EB1060C0F30721134800F0B2F800BF01
:1031E0000221114800F05AF80028F9D0E1B20E4847
:1031F00000F0A7F8002506E0681C85B2B5F5007F51
:1032000001DB002070BD0121074800F047F80028CD
:10321000F2D000BF0448008900F080000028F9D1F6
:1032200001488089EEE700000030014021B10288AA
:1032300042F04002028004E002884FF6BF731A4059
:103240000280704710B504461148844208D101211C
:103250008014FFF763F80021A014FFF75FF816E071
:103260000C48844208D101210014FFF737F80021EF
:103270002014FFF733F80AE00748844207D1012100
:10328000C013FFF72BF80021E013FFF727F810BD5C
:103290000030014000380040003C00400246002061
:1032A00013890B400BB1012000E00020704730B5BE
:1032B000002400230C110125A540ABB21AB185886A
:1032C0001D43858002E085889D43858030BD014691
:1032D0008889704710B50022028802F441520B8899
:1032E000CC892343CC8823430C8923434C89234333
:1032F0008C8923431A43028082884FF2FF031A40CD
:103300008B881A4382800B8A038202884FF6FB73F4
:103310001A404B881A430280838B4FF2FF7423407C
:10332000838310BD014600220A460C321078704794
:1033300082884EF6FF731A40828082880A43828018
:103340007047002202460C321170704730B50346B8
:103350000C461546002207E0184600F008F824F84D
:1033600012009B1C501C82B2AA42F5DB30BD014604
:103370000888704701460868704700002DE9F05F33
:1033800080468A461746B8F1006F02D3334880451D
:1033900001D3BDE8F09FFEF71DFDA8F1006B4FEAD9
:1033A000DB25CBF34909C9F58064A74200DC3C4624
:1033B0004DE04FF0006101EBC5204A142849FFF7AA
:1033C000C5FF00260BE009EB0600254931F8100087
:1033D0004FF6FF71884200D003E0701C86B2A6420F
:1033E000F1DB00BFA6421BDA4FF0006101EBC52004
:1033F000FEF784FC002608E03AF8160006EB090107
:10340000174A22F81100701C86B2A642F4DB4FF076
:10341000006101EBC5203A46114900F023F804E0B1
:1034200022465146404600F01DF8A74200D10FE069
:103430006D1C4FF000090AEB440AA044381B87B208
:10344000B7F5806F02DD4FF4806400E03C46B0E7E2
:1034500000BFFEF793FC00BF9BE7000000000408DC
:10346000060500202DE9F04105460E4617460024CA
:1034700007E036F814102846FEF78AFCAD1C601CE5
:1034800084B2BC42F5DBBDE8F08170470CB500208A
:10349000019000902C48006840F480302A49086070
:1034A00000BF2948006800F4003000900198401CDB
:1034B0000190009818B90198B0F5A06FF1D1224899
:1034C000006800F4003010B10120009001E00020FD
:1034D00000900098012836D102201C4908601A4843
:1034E0004068194948600846406848600846406896
:1034F00040F4806048600846406820F47C104860D2
:103500000846406840F4A81048600846006840F04B
:103510008070086000BF0C48006800F00070002850
:10352000F9D00948406820F0030007494860084680
:10353000406840F00200486000BF0348406800F067
:103540000C000828F9D10CBD0010024000200240F8
:1035500010B500F09FFB10BD10B51B48006840F48B
:103560007000194908601948006840F001001749C7
:1035700008600846406800F47F004860084600681C
:1035800013490840114908600846006820F480206B
:1035900008600846406820F4FE0048600846C06A9B
:1035A00020F00F00C8620846006B0A49084007492E
:1035B000086300208860FFF769FF4FF00060024950
:1035C0008039086010BD000088ED00E00010024066
:1035D000FFFFF6FE8C0FFF0F10B502213C4800F0F4
:1035E0008DFAB8B302213A4800F0A5F90221384813
:1035F00000F09EF9364800F075FA36490881084611
:1036000000893549098988420BDD324800893249F1
:103610000989401A4001192190FBF1F02F490881D6
:1036200013E02C4800892C49098988420DDA294881
:1036300000894FF6FF71084427490989401A400163
:10364000192190FBF1F0254908812248008922497F
:1036500008813CE0FFE704211D4800F04FFAB0B3B9
:1036600004211B4800F067F90421194800F060F9B3
:10367000174800F03AFA1749488108464089164928
:10368000498988420BDD1348408913494989401A0A
:103690004001192190FBF1F01049488113E00D48D9
:1036A00040890D49498988420DDA0A4840894FF618
:1036B000FF71084408494989401A4001192190FBCB
:1036C000F1F006494881034840890349488110BD0B
:1036D00000180040C4030020DC030020F403002095
:1036E00010B502217A4800F009FAB8B302217848EF
:1036F00000F021F90221764800F01AF9744800F030
:10370000F1F974490880084600887349098888429D
:103710000BDD7048008870490988401A4001192162
:1037200090FBF1F06D49088013E06A4800886A490F
:10373000098888420DDA674800884FF6FF7108440F
:1037400065490988401A4001192190FBF1F063494D
:1037500008806048008860490880B8E0FFE70421DD
:103760005B4800F0CBF9B8B30421594800F0E3F806
:103770000421574800F0DCF8554800F0B6F95549E7
:103780004880084640885449498888420BDD5148A2
:10379000408851494988401A4001192190FBF1F0B5
:1037A0004E49488013E04B4840884B49498888423D
:1037B0000DDA484840884FF6FF7108444649498869
:1037C000401A4001192190FBF1F0444948804148DA
:1037D0004088414948807AE0FFE708213C4800F0F2
:1037E0008DF9B8B308213A4800F0A5F80821384807
:1037F00000F09EF8364800F07BF93649888008468C
:1038000080883549898888420BDD32488088324972
:103810008988401A4001192190FBF1F02F498880D6
:1038200013E02C4880882C49898888420DDA294881
:1038300080884FF6FF71084427498988401A400163
:10384000192190FBF1F0254988802248808822497F
:1038500088803CE0FFE710211D4800F04FF9B0B32D
:1038600010211B4800F067F81021194800F060F89B
:10387000174800F040F91749C8800846C088164923
:10388000C98888420BDD1348C0881349C988401A8B
:103890004001192190FBF1F01049C88013E00D4858
:1038A000C0880D49C98888420DDA0A48C0884FF699
:1038B000FF7108440849C988401A4001192190FB4A
:1038C000F1F00649C8800348C0880349C88010BD8C
:1038D000005C0140C4030020DC030020F40300204E
:1038E00010B50221480700F009F950B1012005493F
:1038F00008700221800700F01EF80121880700F0FF
:1039000017F810BD340000207047000010B50221E8
:10391000064800F0F3F838B10221044800F00BF833
:103920000121024800F004F810BD0000000C004026
:10393000CA4302827047CA430282704721B102889B
:1039400042F00102028004E002884FF6FE731A4042
:103950000280704710B50446B4F1804F08D10121B0
:103960000846FEF7BBFC00210120FEF7B7FC9EE0F5
:103970004F48844208D101210220FEF7AFFC00210C
:103980000220FEF7ABFC92E04A48844208D10121B4
:103990000420FEF7A3FC00210420FEF79FFC86E034
:1039A0004548844208D101210820FEF797FC0021F8
:1039B0000820FEF793FC7AE04048844208D10121B8
:1039C0001020FEF78BFC00211020FEF787FC6EE034
:1039D0003B48844208D101212020FEF77FFC0021D2
:1039E0002020FEF77BFC62E03648844208D10121AA
:1039F0004020FEF773FC00214020FEF76FFC56E0EC
:103A00003148844208D101218020FEF767FC002163
:103A10008020FEF763FC4AE02C48844208D1012153
:103A20008015FEF75BFC0021A015FEF757FC3EE079
:103A30002748844209D101210804FEF76FFC0021C8
:103A40004FF48030FEF76AFC31E02248844209D10D
:103A500001214804FEF762FC00214FF40030FEF71C
:103A60005DFC24E01C48844209D101218804FEF752
:103A700055FC00214FF48020FEF750FC17E017485A
:103A8000844208D101214015FEF728FC0021601571
:103A9000FEF724FC0BE01248844208D10121C8043F
:103AA000FEF73CFC00214FF40020FEF737FC10BD70
:103AB0000004004000080040000C004000100040DE
:103AC0000014004000180040001C0040002000408E
:103AD000004001400044014000480140009C00407B
:103AE000005C01400146486B70470146886B704797
:103AF0000146C86B70470146086C704730B50246F6
:103B0000002000230024158A05EA0103958905EAAF
:103B1000010413B10CB1012000E0002030BD1AB146
:103B200083890B43838102E083898B4383817047C0
:103B300000220288B0F1804F0BD0194B984208D078
:103B4000184B984205D0184B984202D0174B984218
:103B500004D14FF68F731A404B881A43144B984286
:103B60000AD0144B984207D0134B984204D04FF61A
:103B7000FF431A400B891A4302804B68C3620B88CB
:103B800003850E4B984205D00D4B984202D00D4B49
:103B9000984201D18B7A038601238382704700000B
:103BA0000004004000080040000C0040005C0140A0
:103BB0000010004000140040009C00400040014004
:103BC00000440140004801401FB501210920FEF7D3
:103BD00075FB4FF08040FFF7BDFE2820019040F2BA
:103BE0009F50ADF800000020ADF80800ADF80200CD
:103BF00069464FF08040FFF79BFF01218807FFF7E0
:103C000097FE012202214807FFF789FF012188075B
:103C1000FFF794FE1C208DF80C0001208DF80D009C
:103C200000208DF80E0001208DF80F0003A8FEF78C
:103C30006FFA1748FFF78EFE0420019040F29F5064
:103C4000ADF800000020ADF80800ADF802006946AC
:103C50000F48FFF76DFF01210D48FFF769FE0122B4
:103C600002210B48FFF75BFF01210948FFF766FEC1
:103C700032208DF80C0002208DF80D0001208DF807
:103C80000E008DF80F0003A8FEF742FA1FBD0000DA
:103C9000000C00400448006820B103480068401E42
:103CA00001490860704700000000002010B532494B
:103CB000324800F085F800284FD044F620603049A3
:103CC00008602D492D4800F069F82C4800F09DF857
:103CD000C4B22C48007830B9072C01D0092C02D18D
:103CE00001202949087028480078012835D1234847
:103CF00000F08BF82549234A12788854084640780A
:103D0000102807D11F480078062803D10D2020492C
:103D100008700EE01D484078032803D108201C4994
:103D2000087006E019484078062802D10820184992
:103D3000087014480078401C124908700846007842
:103D40001349097890FBF1F201FB120028B9012018
:103D50001049087000200B4908700821074800F03E
:103D600026F8012806D10821044800F015F8034878
:103D700000F04BF810BD00000501050000480040B0
:103D800038000020300000203200002058020020BF
:103D900033000020350000200162704710B500227A
:103DA00000230A0C012404FA02F3036210BD024648
:103DB0000020D3690B400BB1012000E000207047C8
:103DC00070B502460B460024002100250020C3F3F5
:103DD0000725D9B2012606FA01F1012D02D1166894
:103DE000314006E0022D02D15668314001E096686C
:103DF00031401C0C012606FA04F4D669344011B196
:103E00000CB1012000E0002070BD0146888CC0F399
:103E10000800704770B50024154890F82760002509
:103E20000AE004EB8400134901EB8000C07B08B179
:103E3000012501E0601CC4B20DB9042CF1DB45B1D1
:103E40000B4890F8270040F02000094981F827002E
:103E500007E0074890F8270000F0DF00044981F8E8
:103E60002700034890F827103046FDF787FB70BD08
:103E700008140020B813002000BFFEE770B5044608
:103E80000E460025022C01DB322507E0044951F8DB
:103E90002400FDF73FFA022800D03225284670BDE5
:103EA0002402002070B504460E460025022C01DBDA
:103EB000322507E0044951F82400FDF72BFA0328C6
:103EC00000D03225284670BD2402002070B504467B
:103ED0000D460026022C01DB32262AE0164951F855
:103EE0002400FDF717FA012804D1134850F82400E4
:103EF00005701EE0104951F82400FDF70BFA042864
:103F000008D10D4850F82400A0F57E0000F580503F
:103F100005700EE0084951F82400FDF7FBF938B9A7
:103F2000054951F824002946FDF7D8FC064600E073
:103F30003226304670BD000024020020F3B5264D25
:103F40002978AD78254E06EB01167678224F7F78DA
:103F500016FB0755A8B29DF804500DB9002501E0E5
:103F6000009DADB21D4E06EB0116766826F8105086
:103F70001A4E06EB01167678184F07EB01173F78BB
:103F800016FB07F6154F07EB01177F6807EB460690
:103F90000546C71700EB5777FF1006EB4702C61719
:103FA00000EB5676F610A0EBC6067606340E9DF8AA
:103FB0000450032D02DA9DF8043000E00323158835
:103FC0000326A640B5431580158803FA04F6B6B259
:103FD00035431580FCBD0000200200205C4F000826
:103FE00000BF0100A0F10100FBD170472DED088B4F
:103FF00090B000BF9FEDFE0A8DED030A9FEDFC0A15
:104000008DED020A9FEDFA0A8DED010A00BF002036
:10401000F8490870F8490870F84908703220F849E2
:1040200008800120F7490870F749087004A8FEF7D6
:1040300085F94FF47A720598B0FBF2F1B1F1807F07
:1040400000D31DE021F07F40401E4FF0E022506180
:1040500050170F22002807DA13071F0EEB4B00F052
:104060000F06361F9F5503E013071E0EE84B1E5424
:1040700000BF00204FF0E02290610720106100BFD8
:10408000FCF74CFCFCF74AF9FDF70CF9FFF79CFD37
:10409000FEF73AFFFDF74AFFFF20DE4908800120C6
:1040A000DD490870DD4908804FF41670DC4908804E
:1040B000DC48FFF75CF9D949088000224FF48061A1
:1040C000D948FDF72BFFD54800884FF6FF7188428D
:1040D00020D1002417E00020D44908550021D34AFC
:1040E000601C11548021A01C11543F21E01C11546C
:1040F0000021201D1154601D1154A01D1154E01DFC
:104100001154401CC4B2702CE5DB3822C749C548A5
:10411000FFF734F90025002437E0C2496818FFF79B
:1041200026F9C3490870BF492944481CFFF71FF905
:10413000BF494870BB492944881CFFF718F9BC499E
:104140008870B8492944C81CFFF711F9B849C870EC
:1041500008460078B5494855B5484178B34A681CC7
:104160001154B3488178A81C1154B148C178E81C97
:104170001154281DC5B2AE4890ED000AAD4800EBC1
:10418000840080ED000A601CC4B20E2CC5DB38250B
:10419000002437E0A3496818FFF7E9F8A64908703A
:1041A000A0492944481CFFF7E2F8A34948709D49FB
:1041B0002944881CFFF7DBF89F49887099492944F6
:1041C000C81CFFF7D4F89C49C87008460078974986
:1041D000485599484178954A681C11549648817809
:1041E000A81C11549448C178E81C1154281DC5B26C
:1041F000914890ED000A914800EB840080ED000AA0
:10420000601CC4B20E2CC5DBFEF782FAFEF7ACF9D7
:104210008448FFF7AFF88A49086045F28860FEF7E6
:10422000CBFF8849088072E1874800780128FAD1DD
:1042300004218648FDF75EFEC60008218348FDF78D
:1042400059FE46EA800610218048FDF753FE46EAF3
:10425000400620217D48FDF74DFE06437C490E7047
:104260000020794908707B480088401C7949088003
:1042700079480088401C78490880084600884FF437
:10428000FA7190FBF1F201FB1200F8B94FF40071E2
:104290007248FDF738FE012805D1002241026F481F
:1042A000FDF73CFE04E0012251026C48FDF736FEAA
:1042B000002069490880012240215B48FDF72EFE5D
:1042C00045F28860FEF778FF5E4908806148008803
:1042D0000A2190FBF1F201FB12000028A3D15D49F5
:1042E000088000250024F3E05D4800EB4406B6F9A1
:1042F000000000F500405B490860084690ED000AA8
:10430000B8EEC00A584880ED000A084690ED000A51
:10431000B8EEC00ADFED550A20EE200A10EE101AA2
:10432000084600F057FD41EC190B9FED510B53EC83
:10433000102B00F065FC41EC180B00F0F1F84A4935
:1043400008603E4800EB840090ED000A394800EB1D
:104350008400D0ED000A084690ED001A00EE810AB4
:1043600080ED000A006800F035FD41EC1B0B9FED6D
:10437000420B53EC102B00F045FB41EC190B40486D
:1043800000EB840090ED000A10EE101A084600F0D1
:1043900021FD41EC1B0B9FED380B53EC102B00F073
:1043A00031FB41EC1A0B53EC192B00F0EBF841EC0C
:1043B000180B00F0B5F82C490860084690ED000A8B
:1043C0002F4800EB840080ED000A084690ED000ABB
:1043D000DFED2C0A20EE200ABDEEC00A214880ED58
:1043E000000A90ED000AB8EEC00AF7EE000A4BE0B2
:1043F000000000003500002090000020880100200F
:10440000A2010020A7010020A601002018ED00E075
:1044100000E400E0820000208E000020CC0000209C
:104420000A0100200000030800080048060D0020D3
:10443000C0000020000E0020C4000020380E002024
:104440007C0100206400002034000020001000489F
:1044500089010020980100209E01002000140048DE
:1044600094030020880000206C010020E4BB943AF3
:1044700009E8740F3F504340000000000000E03F97
:104480006C1200200000C84220EE200A5FED030AF3
:1044900080EE201A084680ED001A1D490860084683
:1044A000006800781B494855194800684178194A46
:1044B000681C1154164800688178A81C11541448CF
:1044C0000068C178E81C1154281DC5B2601CC4B234
:1044D0000E2CFFF609AF10480078C0EBC0000F4962
:1044E0000870002411E00B4801190C480078FCF713
:1044F000B1F94FF44870FFF773FD08480078401C8D
:104500000649087004F10800C4B2382CEBDB8BE6D6
:10451000B8000020C70D002089010020880100207C
:1045200021F00042A2F16052B2F5801F01F0004379
:1045300028BFD2F17F6C0BD95FEA001C43EAC202AC
:1045400042EB507018BF704728BF20F00100704741
:10455000B2F5801FBCBF184670474FEA410C1CF5EE
:10456000001F02D2084600F0ABBC70B500F0F4FAB0
:1045700000000089FFF7F6BF4FF00040A0F5800073
:104580007047000010B591EA030F48BF83F0004365
:1045900000F13E83841A71EB030C05D2121943EB30
:1045A0000C03001B61EB0C01DFF824E14FEA11540E
:1045B000A4EB135C1EEA430F18BF9EEA445F73D05E
:1045C00023EA0E03DCF1200E21EA045143F48013A8
:1045D00032D322FA0CFE10EB0E0023FA0CFE41EB54
:1045E0000E01CCF1200E03FA0EFE10EB0E0051F17D
:1045F0000001B1F5801FCCF1200E32D201EB045145
:1046000012FA0EF2BDE8104058BF7047401C38BF88
:104610005FEA420218BF7047002814BF20F0010073
:1046200041F100014FEA410313F5001F38BF704705
:10463000A1F1C04100F0DEBA012A43EB0302ACF164
:10464000200CDCF11F0E32BF4FF0000E23FA0CF3EA
:1046500010EB030041EB0451B4EB115FD0D0A1EBA0
:10466000045101F5801149085FEA300001EB045163
:104670000ED350F1000038BF12FA0EFE08D1BDE88B
:104680001040C9E7401C38BF5FEA4202CAD1C3E705
:10469000BDE810404FEA410313F5001F38BF7047D3
:1046A000A1F1C04100F0A6BA9EEA445F08D011EA29
:1046B0005E0FBDE8104004BF01F0004100207047CC
:1046C000BDE8104070B500F047FA00BF64FBBE3E85
:1046D0000000E0FF2DE9C04130B4DFF8A0C23CEAA1
:1046E000111418BF3CEA131400F0EC8081EA0305B2
:1046F0001CEA111444EAD57418BF1CEA131500F023
:10470000C780A4EB05044FF0004545EAC12145EA06
:10471000C32341EA505143EA525304F17F74994252
:1047200004F500344FEAC0204FEAC22208BF90428D
:1047300000F09C804FEA13650FF24016765D4FEA59
:10474000134506FB05F7C7F1807706FB07F74FEA2D
:10475000D737A7FB03687642C8F58038A7FB06CE9B
:1047600038BFA8F1010807FB08E64FF0000EA6FBD2
:10477000028CE6FB03CEDCF1000CCEF1004E38BF1C
:10478000AEF1010EA6FB0C584FF000074FF00005EC
:10479000E6FB0E87A1FB08C6A0FB07CE16EB0E06B4
:1047A00045F10005E1FB076515F1E04E7EBFA4F57C
:1047B00080345FEA46066D4116F1800745F1000539
:1047C0004FEA17274FEA066647EA0567A6F1DE4675
:1047D000B6F1805F4FEA15251FD9384624F0010C49
:1047E00005EBC471BCF1FE6F01EB0C1102D8F0BCFB
:1047F000BDE8008124425CBF01F5801E9EEAC47FB3
:1048000002D4F0BCBDE80081244238D4F0BCA1F150
:10481000C041BDE8004100F0EDB94FEAD22242EAC2
:1048200043524FEAD323A7FB02864FEAD02040EA47
:10483000415007FB03661EEA0E0F4FEAD12105FB2C
:10484000026658BFA6EB0056B6EB00564FEA520E72
:104850004EEAC37E18EB0E0E56EB530EBDD518EB89
:1048600002085E417F1C55F10005B6E74FF4801544
:104870004FF000074FF000064FF00008ADE7F0BC26
:104880004FF0000001F1C04101F00041BDE800819E
:1048900011EA0C1F0CEA131500D00CE013EA0C1FF0
:1048A00000F025804FF00000F0BC81EA030101F028
:1048B0000041BDE80081F0BCBDE8004181EA030190
:1048C00000F098B9F0BCBDE8004170B500F044F9C3
:1048D000097EFC3E00F007B881EA03014FF00000BA
:1048E00001F00041704781EA030100F083B9F0BC98
:1048F000BDE800414FF0000021497047FFFDFBF982
:10490000F7F5F4F2F0EEEDEBE9E8E6E4E3E1E0DE02
:10491000DDDBDAD8D7D5D4D3D1D0CFCDCCCBCAC874
:10492000C7C6C5C4C2C1C0BFBEBDBCBBBAB9B8B79B
:10493000B6B5B4B3B2B1B0AFAEADACABAAA9A8A88E
:10494000A7A6A5A4A3A3A2A1A09F9F9E9D9C9C9B5C
:104950009A99999897979695959493939291919007
:104960008F8F8E8E8D8C8C8B8B8A89898888878798
:104970008685858484838382828181800000FF070D
:104980000000F87F4FEA1153A3F58063D3F11E03B3
:10499000A8BFD3F1200C08DB4FF0004242EAC1224D
:1049A00052EA505232FA03F0704709420BD4102BEE
:1049B000C4BF0020704703F5787CBCF1FF3F05D0F1
:1049C0004FF0FF3070474FF00000704770B500F0B7
:1049D000C3F800BF4992248000207047F0E7B0FA86
:1049E00080F310FA03F10AD0C3F11D0303F58063CD
:1049F0004FEA41504FEA035202EBD12170474FF08A
:104A000000007047DFF848C170B51CEA111E1EBFD8
:104A10001CEA13159EEA0C0F95EA0C0F00F06F804C
:104A200081EA030423EA4C134EEAD47E21EA4C11B6
:104A300041F4801143F48013AE44A1FB024CA0FB6F
:104A40000365AEF17F7E361955EB0C05A1FB034CD7
:104A50004CF10003A0FB021C16EB0C06654153F160
:104A60000003094218BF46F0010613F4007F0BD182
:104A70004FEA03314FEA0530340341EA155140EA69
:104A800016506FF003020AE04FEAC3214FEAC52037
:104A9000F40241EA555140EA56506FF0020202EB2F
:104AA0002E4201EB025585EACE710AD05FEA440C32
:104AB00018BF24F0004450F1000041F1000120EA49
:104AC000D47040F2FE7C624500D270BDA84214BF93
:104AD0004FF080444FF04044002E08BF0024BEF148
:104AE000806FA8BFA1F1C041BDE8704080F2828014
:104AF0004FF0000001F1C04101F0004170479EEA13
:104B00000C0F0CEA131518BF95EA0C0F06D04FF0E6
:104B1000000081EA030E0EF0004170BD00F01CF8A9
:104B20008900013E00F007B800F009B84FEA430CD5
:104B30005FEA5C5C08D081EA030100F05BB84FEAF1
:104B4000410C5FEA5C5CF6D14FF000000149704710
:104B50000000FF070000F87F0EF1020E2EF0030E9A
:104B60005EF8046B364205D4012A43EB030515F5C4
:104B7000001F12D8012841EB010C1CF5001F0CD8B6
:104B80000ED14FEAD17C15F5001F0CEB4C0C0CF14B
:104B9000020C08BF4CEBD37C04E04FF0080C01E0A2
:104BA0004FEAD37C0CEB4C0526FA05F606F0070617
:104BB000B6F1040C06D20EEB860CBDE870404CF04A
:104BC000010C6047DFE80CF0090B02024FF00041D6
:104BD0004FF00000A1F5002170BD194610460128D4
:104BE00051EB010418BFD4F5001484BF002001F07C
:104BF000004170BD0808A0F500114FEA310170476F
:104C000010B591EA030F48BF83F000433FF5C2ACF3
:104C1000841A71EB030C07D212198CF0004C43EB91
:104C20000C03001B61EB0C01DFF8A4E14FEA115407
:104C3000A4EB135C1EEA430F18BF9EEA445F00F02A
:104C4000B08023EA6E03524221EA0451C3EB6E03A3
:104C500038BF5B1EDCF1200E25D322FA0CFE10EBD0
:104C60000E0043FA0CFE41EB0E01CCF1200E03FACC
:104C70000EFE10EB0E0051F10001CCF1200E29D4F4
:104C800012FA0EF201EB0451BDE8104058BF704714
:104C9000401C1CBFB2F1004F704700280CBF491CDC
:104CA00020F00100704712EB020E43EB030218BF25
:104CB0004FF0010E4EEA4202ACF1200CDCF11E0E68
:104CC00054D943FA0CFE10EB0E0051F1FF31CCF138
:104CD0001E0ED5D50EF1010E12FA0EFE404141EB2B
:104CE000010101EB445C5FEA5C5C10D910EBDE7003
:104CF00001EB045138BFBEF1004FBDE8104018BFB2
:104D0000704700280CBF491C20F00100704730D2CA
:104D10004FEAD42C11F5001124F400641BD0B1FA31
:104D200081F20B3AA41AA41ED2F12003914030FA6A
:104D300003F31943904001EBCC71002C01EB0451BB
:104D4000BDE81040A8BF704701F1C0414FF000001E
:104D500001F000417047B0FA80F310FA03F100D17E
:104D600010BDE41A173C4805C90AE4E701EB0451F9
:104D700010BD491001EB0451BDE810404FEA30006E
:104D800002E04FF0000170474A0008BF0042F8D02F
:104D9000B2F5001F28BF704701F000414FF000003E
:104DA00070479EEA445F07D011EA5E0FBDE81040ED
:104DB00004BF002100207047BDE8104070B5FFF728
:104DC000CBFE00BF40DFF63E83F000411046704747
:104DD0000000E0FF43004FEAD30C4FEA3C0C434095
:104DE0001FBF40070CF1605113F0FE4F70471CF0DD
:104DF000006F03D100200CF0004170470CF000431D
:104E000043EA507010B540EACC0000F00EF800BF45
:104E1000000000924FEA0001FFF7ECBE4FF00041A6
:104E20004FF00000A1F5002170470EF1020E2EF0A8
:104E3000030E5EF8044B244204D44FEA4102B2F15F
:104E40007F4F11D84FEA4003B3F17F4F0CD80ED1FA
:104E50004FEAD07CB2F17F4F0CEB4C0C0CF1020C02
:104E600008BF4CEBD17C04E04FF0080C01E04FEAA6
:104E7000D17C0CEB4C0324FA03F404F00704B4F1E6
:104E8000040C06D20EEB840CBDE810404CF0010C73
:104E90006047DFE80CF0070802024FF00040A0F581
:104EA000800010BD0846420018BFD2F1807288BF52
:104EB00000F0004010BD4FF04070E1EE100A704766
:104EC000FF2141EAD050C005704700006110000882
:104ED00065100008F51400086D110008011800089D
:104EE000611000080D160008DD100008E916000822
:104EF000B1110008611000086110000809150008D0
:104F000081120008650F0008CD150008B10F0008D8
:104F1000C514000895120008F1170008D511000803
:104F2000CD140008491800088D110008D513000899
:104F30007D13000861100008C1110008611000080D
:104F4000611000086110000861100008611000087D
:104F500061100008E9130008811100080207000031
:104F6000341400206213002001000000020700003A
:104F700054140020701300200100000004070000FA
:104F8000741400207E1300200100000004070000BC
:104F9000B41400209A130020010000000300060052
:104FA0000C00180030006000C00080010003000603
:104FB000000C00180030006000C00000010000007C
:104FC00008000000000000000102000000000000D6
:104FD00002000000080000000000000001020000C4
:104FE00000000000030000000800000000000000B6
:104FF00001020000000000000400000008000000A2
:105000000000000001020000000000000500000098
:105010000800000000000000010200000000000085
:10502000060000000800000000000000010200006F
:105030000000000007000000080000000000000061
:10504000010200000000000008000000080000004D
:105050000000000001020000000000000900000044
:105060000800000000000000010200000000000035
:105070000A0000000800000000000000010200001B
:10508000000000000B00000008000000000000000D
:1050900001020000000000000C00000008000000F9
:1050A0000000000001020000000000000D000000F0
:1050B00008000000000000000102000000000000E5
:1050C0000E000000080000000000000001020000C7
:1050D000000000000F0000000800000000000000B9
:1050E00001020000000000001000000008000000A5
:1050F000000000000102000000000000F4070000B2
:105100000800000000000000010200000000000094
:10511000F507000008000000000000000102000088
:1051200000000000F607000008000000000000007A
:105130000102000000000000F70700000800000066
:10514000000000000102000000000000F80700005D
:105150000800000000000000010200000000000044
:10516000F00700000800000000000000010201003C
:10517000905100080000002058020000C4010008FF
:1051800008520008580200203019000020020008D0
:10519000812D0102030404280906070809020406F8
:1051A0000804100D0A0C0E1014181C2024282C3092
:1051B00002428002FF04013E0A1B640F1818666653
:1051C000263F3333333FCDCC4C3F6666663F4A0CB7
:1051D000823F3D0A97043017B73F9A99D93F48E17B
:1051E0001A407B140EC0C3F5E8BF7B148EBF2904A0
:1051F00011180CC3F5A83E1F852B3FD7A3700403DD
:0852000024B03F0322FFFF0070
:040000050800026984
:00000001FF
